{
  "_format": "hh-sol-artifact-1",
  "contractName": "Raffle",
  "sourceName": "contracts/Raffle.sol",
  "abi": [
    {
      "inputs": [
        {
          "internalType": "uint256",
          "name": "entranceFee",
          "type": "uint256"
        },
        {
          "internalType": "address",
          "name": "vrfCoordinatorv2",
          "type": "address"
        }
      ],
      "stateMutability": "nonpayable",
      "type": "constructor"
    },
    {
      "inputs": [
        {
          "internalType": "address",
          "name": "have",
          "type": "address"
        },
        {
          "internalType": "address",
          "name": "want",
          "type": "address"
        }
      ],
      "name": "OnlyCoordinatorCanFulfill",
      "type": "error"
    },
    {
      "inputs": [],
      "name": "Raffle_NotEnoughETHEntered",
      "type": "error"
    },
    {
      "anonymous": false,
      "inputs": [
        {
          "indexed": true,
          "internalType": "address",
          "name": "player",
          "type": "address"
        },
        {
          "indexed": false,
          "internalType": "uint256",
          "name": "amount",
          "type": "uint256"
        }
      ],
      "name": "LogPlayerEntered",
      "type": "event"
    },
    {
      "inputs": [],
      "name": "enterRaffle",
      "outputs": [],
      "stateMutability": "payable",
      "type": "function"
    },
    {
      "inputs": [],
      "name": "getEntranceFee",
      "outputs": [
        {
          "internalType": "uint256",
          "name": "",
          "type": "uint256"
        }
      ],
      "stateMutability": "view",
      "type": "function"
    },
    {
      "inputs": [
        {
          "internalType": "uint256",
          "name": "playerIndex",
          "type": "uint256"
        }
      ],
      "name": "getPlayer",
      "outputs": [
        {
          "internalType": "address",
          "name": "",
          "type": "address"
        }
      ],
      "stateMutability": "view",
      "type": "function"
    },
    {
      "inputs": [],
      "name": "pickRandomWinner",
      "outputs": [],
      "stateMutability": "nonpayable",
      "type": "function"
    },
    {
      "inputs": [
        {
          "internalType": "uint256",
          "name": "requestId",
          "type": "uint256"
        },
        {
          "internalType": "uint256[]",
          "name": "randomWords",
          "type": "uint256[]"
        }
      ],
      "name": "rawFulfillRandomWords",
      "outputs": [],
      "stateMutability": "nonpayable",
      "type": "function"
    }
  ],
  "bytecode": "0x60c060405234801561001057600080fd5b5060405161080638038061080683398181016040528101906100329190610110565b808073ffffffffffffffffffffffffffffffffffffffff1660808173ffffffffffffffffffffffffffffffffffffffff1681525050508160a081815250505050610150565b600080fd5b6000819050919050565b61008f8161007c565b811461009a57600080fd5b50565b6000815190506100ac81610086565b92915050565b600073ffffffffffffffffffffffffffffffffffffffff82169050919050565b60006100dd826100b2565b9050919050565b6100ed816100d2565b81146100f857600080fd5b50565b60008151905061010a816100e4565b92915050565b6000806040838503121561012757610126610077565b5b60006101358582860161009d565b9250506020610146858286016100fb565b9150509250929050565b60805160a0516106836101836000396000818161010501526101eb01526000818161012b015261017f01526106836000f3fe60806040526004361061004a5760003560e01c806309bc33a71461004f5780631fe543e31461007a5780632cfcc539146100a3578063898da229146100ad578063e55ae4e8146100c4575b600080fd5b34801561005b57600080fd5b50610064610101565b604051610071919061035c565b60405180910390f35b34801561008657600080fd5b506100a1600480360381019061009c9190610510565b610129565b005b6100ab6101e9565b005b3480156100b957600080fd5b506100c26102f6565b005b3480156100d057600080fd5b506100eb60048036038101906100e6919061056c565b6102f8565b6040516100f891906105da565b60405180910390f35b60007f0000000000000000000000000000000000000000000000000000000000000000905090565b7f000000000000000000000000000000000000000000000000000000000000000073ffffffffffffffffffffffffffffffffffffffff163373ffffffffffffffffffffffffffffffffffffffff16146101db57337f00000000000000000000000000000000000000000000000000000000000000006040517f1cf993f40000000000000000000000000000000000000000000000000000000081526004016101d29291906105f5565b60405180910390fd5b6101e5828261033f565b5050565b7f0000000000000000000000000000000000000000000000000000000000000000341015610243576040517f74938f2700000000000000000000000000000000000000000000000000000000815260040160405180910390fd5b6000339080600181540180825580915050600190039060005260206000200160009091909190916101000a81548173ffffffffffffffffffffffffffffffffffffffff021916908373ffffffffffffffffffffffffffffffffffffffff1602179055503373ffffffffffffffffffffffffffffffffffffffff167fc24c6ad3bbae78377b61807fd84fab3389987d685fc6e0093c1250e9f4be8756346040516102ec919061035c565b60405180910390a2565b565b600080828154811061030d5761030c61061e565b5b9060005260206000200160009054906101000a900473ffffffffffffffffffffffffffffffffffffffff169050919050565b5050565b6000819050919050565b61035681610343565b82525050565b6000602082019050610371600083018461034d565b92915050565b6000604051905090565b600080fd5b600080fd5b61039481610343565b811461039f57600080fd5b50565b6000813590506103b18161038b565b92915050565b600080fd5b6000601f19601f8301169050919050565b7f4e487b7100000000000000000000000000000000000000000000000000000000600052604160045260246000fd5b610405826103bc565b810181811067ffffffffffffffff82111715610424576104236103cd565b5b80604052505050565b6000610437610377565b905061044382826103fc565b919050565b600067ffffffffffffffff821115610463576104626103cd565b5b602082029050602081019050919050565b600080fd5b600061048c61048784610448565b61042d565b905080838252602082019050602084028301858111156104af576104ae610474565b5b835b818110156104d857806104c488826103a2565b8452602084019350506020810190506104b1565b5050509392505050565b600082601f8301126104f7576104f66103b7565b5b8135610507848260208601610479565b91505092915050565b6000806040838503121561052757610526610381565b5b6000610535858286016103a2565b925050602083013567ffffffffffffffff81111561055657610555610386565b5b610562858286016104e2565b9150509250929050565b60006020828403121561058257610581610381565b5b6000610590848285016103a2565b91505092915050565b600073ffffffffffffffffffffffffffffffffffffffff82169050919050565b60006105c482610599565b9050919050565b6105d4816105b9565b82525050565b60006020820190506105ef60008301846105cb565b92915050565b600060408201905061060a60008301856105cb565b61061760208301846105cb565b9392505050565b7f4e487b7100000000000000000000000000000000000000000000000000000000600052603260045260246000fdfea2646970667358221220f8b2a0db4beb8c0825865489668eec1b54db6f29f64ee1d26ea0482beb7f6fff64736f6c63430008090033",
  "linkReferences": {},
  "deployedLinkReferences": {}
}